:020000040000FA
:100000000C9463000C948B000C948B000C948B006C
:100010000C948B000C948B000C948B000C94B20409
:100020000C948B000C948B000C948B000C948B0024
:100030000C948B000C948B000C948B000C948B0014
:100040000C9466050C948B000C9434050C940E05EE
:100050000C948B000C948B000C948B000C948B00F4
:100060000C948B000C948B000000000024002700EF
:100070002A0000000000250028002B0002000000DC
:100080000800020100000304070000000000000057
:1000900000000000002300260029000404040404DA
:1000A0000404040202020202020303030303030125
:1000B00002040810204080010204081020010204FC
:1000C00008102000790711241FBECFEFD8E0DEBF53
:1000D000CDBF11E0A0E0B1E0EEEDFFE002C0059081
:1000E0000D92A634B107D9F722E0A6E4B1E001C031
:1000F0001D92A030B207E1F710E0C3E6D0E004C0E3
:100100002197FE010E94E707C236D107C9F70E9476
:10011000F5050C94ED070C940000AF92BF92CF92BE
:10012000DF92EF92FF920F931F93CF93DF936C01B7
:100130007B018B01040F151FEB015E01AE18BF0898
:10014000C017D10759F06991D601ED91FC9101904A
:10015000F081E02DC6010995892B79F7C501DF9162
:10016000CF911F910F91FF90EF90DF90CF90BF90B4
:10017000AF900895FC01538D448D252F30E0842FDE
:1001800090E0821B930B541710F0CF9608950197BF
:100190000895FC01918D828D981761F0A28DAE0FAC
:1001A000BF2FB11D5D968C91928D9F5F9F73928F33
:1001B00090E008958FEF9FEF0895FC01918D828D5F
:1001C000981731F0828DE80FF11D858D90E008952C
:1001D0008FEF9FEF0895FC01918D228D892F90E084
:1001E000805C9F4F821B91098F739927089583E646
:1001F00091E00E94EB0021E0892B09F420E0822F9E
:10020000089580E090E0892B29F00E94F700811189
:100210000C9400000895FC01A48DA80FB92FB11D06
:10022000A35ABF4F2C91848D90E001968F7399272C
:10023000848FA689B7892C93A089B1898C9183700A
:1002400080648C93938D848D981306C00288F38903
:10025000E02D80818F7D80830895EF92FF920F9330
:100260001F93CF93DF93EC0181E0888F9B8D8C8D62
:1002700098131AC0E889F989808185FF15C09FB756
:10028000F894EE89FF896083E889F9898081837019
:10029000806480839FBF81E090E0DF91CF911F91C8
:1002A0000F91FF90EF900895F62E0B8D10E00F5FE9
:1002B0001F4F0F731127E02E8C8D8E110CC00FB6BF
:1002C00007FCFACFE889F989808185FFF5CFCE0157
:1002D0000E940B01F1CFEB8DEC0FFD2FF11DE35AC6
:1002E000FF4FF0829FB7F8940B8FEA89FB898081DA
:1002F0008062CFCFCF93DF93EC01888D8823B9F054
:10030000AA89BB89E889F9898C9185FD03C0808120
:1003100086FD0DC00FB607FCF7CF8C9185FFF2CF9D
:10032000808185FFEDCFCE010E940B01E9CFDF91E7
:10033000CF910895833081F028F4813099F0823094
:10034000A9F008958730A9F08830C9F08430B1F45D
:10035000809180008F7D03C0809180008F77809393
:100360008000089584B58F7784BD089584B58F7D0E
:10037000FBCF8091B0008F778093B000089580917B
:10038000B0008F7DF9CFCF93DF93E7E8F0E0849161
:10039000E9EBF0E0D491E5EAF0E0C491CC23A1F0E0
:1003A00081110E949A01EC2FF0E0EE0FFF1FEF5633
:1003B000FF4FA591B491EC91ED2381E090E009F419
:1003C00080E0DF91CF91089580E090E0FACF1F9315
:1003D000CF93DF93282F30E0F901E358FF4F84914A
:1003E000F901E155FF4FD491F901E556FF4FC49152
:1003F000CC23A9F0162F81110E949A01EC2FF0E076
:10040000EE0FFF1FEE58FF4FA591B4918FB7F894F0
:10041000EC91111108C0D095DE23DC938FBFDF91E2
:10042000CF911F910895DE2BF8CF90910001891391
:100430000BC0ECE7F0E0E4919FEF90930001E13016
:1004400049F028F0E23061F060E00C94E70110928E
:100450006E00FACF90916F009D7F90936F00F4CF64
:10046000909170009D7F9093700091E09093B00008
:100470009091B100987F94609093B1001092B30076
:10048000E3CFCF93DF9390E0FC01E155FF4F249140
:1004900085569F4FFC0184918823D1F090E0880F0E
:1004A000991FFC01E859FF4FA591B491FC01EE584A
:1004B000FF4FC591D49161110EC09FB7F8948C91F4
:1004C000E22FE0958E238C932881E223E8839FBF5F
:1004D000DF91CF9108958FB7F894EC91E22BEC93D4
:1004E0008FBFF6CFCF92DF92EF92FF92CF936C0146
:1004F000809100018D3049F08F3F09F466C0CF91A3
:10050000FF90EF90DF90CF900895ECE7F0E0C4917A
:10051000C7FDF5CF61E08DE00E944102F12CE12C96
:10052000CC23D1F0960150E040E0C23009F0BCC0CD
:100530007A0160E970ED83E090E00E94C807BA019B
:10054000A901415051096109710983E04F3F5105EB
:100550006105710559F154F168E478EE81E090E0AD
:10056000A70196010E94C807BA01A901415051098B
:1005700061097109CC2309F4D4C0C23009F00EC15D
:100580004F3F51056105710509F00CF40EC164E29D
:1005900074EF80E090E0A70196010E94C807BA01BD
:1005A000A901415051096109710985E09091B1009B
:1005B000987F892B8093B100C13009F48AC0C23082
:1005C00009F49CC0C1119BCFC6C08DE0809300018F
:1005D000ECE7F0E0C491CF3F09F491CFC13021F1B5
:1005E00050F0C23009F43EC0C7FD89CF61E08DE014
:1005F0000E94410297CF14BC15BC84B5826084BDB3
:1006000085B5816085BDE8EAF0E0E491F0E0EE0FA9
:10061000FF1FEE58FF4F85919491ECEBF0E0E491D1
:10062000E0935601C0E076CF1092800010928100D6
:100630008091810088608093810080918100816039
:1006400080938100E8EAF0E0E491F0E0EE0FFF1F14
:10065000EE58FF4F85919491ECEBF0E0E491E0933C
:10066000550158CF1092B0001092B1008091B000A7
:1006700082608093B0008091B10081608093B1006E
:10068000E8EAF0E0E491F0E0EE0FFF1FEE58FF4FD4
:10069000859194919093540180935301ECEBF0E099
:1006A000E491E093520136CF60E072E18AE790E096
:1006B0000E94C807BA01A901415051096109710995
:1006C000C13009F079CF80918100887F816080936B
:1006D000810050938900409388008FEF9FEFDC01E9
:1006E00080935B0190935C01A0935D01B0935E01E8
:1006F00080916F00826080936F0001CF4093B300C0
:100700008FEF9FEFDC018093570190935801A093E6
:100710005901B0935A0180917000826080937000FB
:10072000EECE93E04F3F51056105710581F07CF0FD
:1007300062E17AE780E090E0A70196010E94C80795
:10074000BA01A901415051096109710994E085B5C7
:10075000887F892B85BD47BD8FEF9FEFDC0180939C
:100760005F0190936001A0936101B0936201809159
:100770006E00826080936E00C2CE62E17AE780E014
:1007800090E0A70196010E94C807BA01A901415053
:10079000510961097109C1E086E008CF4F3F510559
:1007A0006105710509F04CF7C1E084E0FFCE3FB769
:1007B000F89480914B0190914C01A0914D01B09122
:1007C0004E0126B5A89B05C02F3F19F00196A11D2B
:1007D000B11D3FBFBA2FA92F982F8827BC01CD018B
:1007E000620F711D811D911D42E0660F771F881FEA
:1007F000991F4A95D1F708958F929F92AF92BF9219
:10080000CF92DF92EF92FF924B015C010E94D703DF
:100810006B017C010E94D7036C197D098E099F0929
:10082000683E734081059105A8F321E0821A910882
:10083000A108B10888EEC80E83E0D81EE11CF11CA7
:1008400081149104A104B10429F7FF90EF90DF9087
:10085000CF90BF90AF909F908F9008950F931F936C
:10086000482FE9EBF0E06491E5EAF0E0E4918111D2
:10087000462FF0E0EE0FFF1FEF56FF4F859194914A
:1008800000E412E42FE030E00E94B005611571052C
:100890008105910529F06F5F7F4F8F4F9F4F9F70AC
:1008A0001F910F910895FC0101900020E9F7319705
:1008B000AF01481B590BBC0183E691E00C948D00FD
:1008C0008F929F92AF92BF920F931F93CF93DF931C
:1008D000CDB7DEB7A1970FB6F894DEBF0FBECDBF80
:1008E00019A2423008F44AE08E010F5D1F4F842E9A
:1008F000912CB12CA12CA50194010E94A607E62FF2
:10090000B901CA01EA30F4F4E05DD801EE938D013B
:10091000232B242B252B79F790E080E0109719F0FA
:10092000CD010E945304A1960FB6F894DEBF0FBE0E
:10093000CDBFDF91CF911F910F91BF90AF909F904E
:100940008F900895E95CE1CFCF93DF930E94530429
:10095000EC0183E191E00E9453048C0F9D1FDF9115
:10096000CF9108951F920F920FB60F9211242F93DB
:100970003F934F935F936F937F938F939F93AF9327
:10098000BF93EF93FF938091570190915801A091ED
:100990005901B0915A01892B8A2B8B2BD1F190915F
:1009A0005201E0915301F0915401808189278083A5
:1009B0008091570190915801A0915901B0915A012D
:1009C000181619061A061B069CF48091570190917F
:1009D0005801A0915901B0915A010197A109B1099B
:1009E0008093570190935801A0935901B0935A01F5
:1009F000FF91EF91BF91AF919F918F917F916F91F7
:100A00005F914F913F912F910F900FBE0F901F90CC
:100A10001895809100010E941502EACF1F920F9253
:100A20000FB60F9211242F933F934F935F936F93C1
:100A30007F938F939F93AF93BF93EF93FF9383E63F
:100A400091E00E940B01FF91EF91BF91AF919F91B7
:100A50008F917F916F915F914F913F912F910F9067
:100A60000FBE0F901F9018951F920F920FB60F9206
:100A700011242F938F939F93EF93FF93E091730132
:100A8000F09174018081E0917901F0917A0182FD09
:100A90001BC0908180917C018F5F8F7320917D01BD
:100AA000821741F0E0917C01F0E0ED59FE4F958F07
:100AB00080937C01FF91EF919F918F912F910F90E7
:100AC0000FBE0F901F9018958081F4CF1F920F9248
:100AD0000FB60F9211242F933F938F939F93AF9351
:100AE000BF938091470190914801A0914901B09135
:100AF0004A013091460123E0230F2D3758F5019626
:100B0000A11DB11D20934601809347019093480198
:100B1000A0934901B0934A0180914B0190914C01FF
:100B2000A0914D01B0914E010196A11DB11D809380
:100B30004B0190934C01A0934D01B0934E01BF9196
:100B4000AF919F918F913F912F910F900FBE0F907A
:100B50001F90189526E8230F0296A11DB11DD2CF34
:100B6000CF92DF92EF92FF920F931F93E82FF92F0E
:100B700005C0015011092109310961F190819623C5
:100B80009417B9F305C0015011092109310911F178
:100B9000908196239413F7CFC12CD12CE12CF12C0A
:100BA0000AC08FEFC81AD80AE80AF80A0C151D0502
:100BB0002E053F0579F080818623841791F36C2DF3
:100BC0007D2D8E2D9F2D1F910F91FF90EF90DF9027
:100BD000CF90089560E070E080E090E01F910F9169
:100BE000FF90EF90DF90CF900895789484B5826065
:100BF00084BD84B5816084BD85B5826085BD85B5C1
:100C0000816085BD80916E00816080936E0010923E
:100C100081008091810082608093810080918100B9
:100C2000816080938100809180008160809380004A
:100C30008091B10084608093B1008091B0008160A8
:100C40008093B00080917A00846080937A008091D4
:100C50007A00826080937A0080917A00816080932C
:100C60007A0080917A00806880937A001092C100A7
:100C7000E0917301F091740182E08083E0916F0153
:100C8000F09170011082E0917101F09172018FEC8E
:100C9000808310927B01E0917701F091780186E0EA
:100CA0008083E0917501F09176018081806180837D
:100CB000E0917501F0917601808188608083E091F8
:100CC0007501F0917601808180688083E0917501E3
:100CD000F091760180818F7D808361E088E00E94C1
:100CE000410261E089E00E94410261E08CE00E94E3
:100CF000410261E08BE00E94410260E08AE00E94D4
:100D0000410261E088E00E94E70161E089E00E9421
:100D1000E701C0E0D0E060E08CE00E94E70160E025
:100D20008BE00E94E7010E94C30121E0019709F4D2
:100D300020E0822F0E942E046093510161E08BE03D
:100D40000E94E7010E94C30121E0019709F420E01D
:100D5000822F0E942E0460934F0161E08CE00E947C
:100D6000E7010E94C30121E0019709F420E0822FEE
:100D70000E942E046093500186E191E00E9453048A
:100D80006091510170E090E080E04AE00E946004D0
:100D90008CE191E00E9453046091500170E090E07A
:100DA00080E04AE00E94600484E291E00E945304E3
:100DB00060914F0170E090E080E04AE00E946004A2
:100DC0009091510180914F019817F0F520915001B9
:100DD0002536D0F19C3DC0F58BE291E00E94A40441
:100DE00061E082E00E94E70160E083E00E94E701A9
:100DF00060E084E00E94E70160E085E00E94E70196
:100E000060ED77E080E090E00E94FC0388EB91E0E9
:100E10000E94720264EF71E080E090E00E94FC03A7
:100E20008DE00E94150268EE73E080E090E00E9481
:100E3000FC03209709F46FCF0E94F700882309F480
:100E40006ACF0E94000067CF8233E8F482E391E02A
:100E50000E94A40461E083E00E94E70160E082E078
:100E60000E94E70160E084E00E94E70160E085E025
:100E70000E94E70160ED77E080E090E00E94FC03D3
:100E800088E592E0C5CF809150018C38E8F48AE380
:100E900091E00E94A40461E084E00E94E70160E028
:100EA00082E00E94E70160E083E00E94E70160E0E9
:100EB00085E00E94E70160ED77E080E090E00E942D
:100EC000FC0388EE93E0A4CF83E491E00E94A404A5
:100ED00061E085E00E94E70160E082E00E94E701B6
:100EE00060E084E00E94E70160E083E00E94E701A7
:100EF0009ACFE3E6F1E01382128288EE93E0A0E05D
:100F0000B0E084839583A683B78385E091E09183E5
:100F1000808385EC90E09587848784EC90E09787C8
:100F2000868780EC90E0918B808B81EC90E0938BB6
:100F3000828B82EC90E0958B848B86EC90E0978B93
:100F4000868B118E128E138E148E0895A1E21A2EA6
:100F5000AA1BBB1BFD010DC0AA1FBB1FEE1FFF1F5D
:100F6000A217B307E407F50720F0A21BB30BE40BAD
:100F7000F50B661F771F881F991F1A9469F76095F4
:100F80007095809590959B01AC01BD01CF010895AE
:100F9000052E97FB1EF400940E94DF0757FD07D033
:100FA0000E94A60707FC03D04EF40C94DF0750956F
:100FB0004095309521953F4F4F4F5F4F0895909545
:100FC0008095709561957F4F8F4F9F4F0895EE0FDD
:100FD000FF1F0590F491E02D0994F894FFCFFF00D6
:100FE0000000002D018D00BA007A01EB00C900DD80
:100FF000000D0A005265643A2000477265656E3A3A
:101000002000426C75653A2000202D205265640056
:10101000202D20426C756500202D20477265656E7D
:04102000002D00009F
:107E0000112484B714BE81FFF0D085E080938100F7
:107E100082E08093C00088E18093C10086E0809377
:107E2000C20080E18093C4008EE0C9D0259A86E02C
:107E300020E33CEF91E0309385002093840096BBD3
:107E4000B09BFECF1D9AA8958150A9F7CC24DD24C4
:107E500088248394B5E0AB2EA1E19A2EF3E0BF2EE7
:107E6000A2D0813461F49FD0082FAFD0023811F036
:107E7000013811F484E001C083E08DD089C08234E0
:107E800011F484E103C0853419F485E0A6D080C0E4
:107E9000853579F488D0E82EFF2485D0082F10E0AE
:107EA000102F00270E291F29000F111F8ED06801E7
:107EB0006FC0863521F484E090D080E0DECF843638
:107EC00009F040C070D06FD0082F6DD080E0C81688
:107ED00080E7D80618F4F601B7BEE895C0E0D1E017
:107EE00062D089930C17E1F7F0E0CF16F0E7DF06D8
:107EF00018F0F601B7BEE89568D007B600FCFDCFD4
:107F0000A601A0E0B1E02C9130E011968C91119780
:107F100090E0982F8827822B932B1296FA010C0160
:107F200087BEE89511244E5F5F4FF1E0A038BF0790
:107F300051F7F601A7BEE89507B600FCFDCF97BE46
:107F4000E89526C08437B1F42ED02DD0F82E2BD052
:107F50003CD0F601EF2C8F010F5F1F4F84911BD097
:107F6000EA94F801C1F70894C11CD11CFA94CF0C13
:107F7000D11C0EC0853739F428D08EE10CD085E9AC
:107F80000AD08FE07ACF813511F488E018D01DD067
:107F900080E101D065CF982F8091C00085FFFCCF94
:107FA0009093C60008958091C00087FFFCCF809118
:107FB000C00084FD01C0A8958091C6000895E0E648
:107FC000F0E098E1908380830895EDDF803219F02E
:107FD00088E0F5DFFFCF84E1DECF1F93182FE3DFCA
:107FE0001150E9F7F2DF1F91089580E0E8DFEE27F6
:047FF000FF270994CA
:027FFE00040479
:00000001FF
